{
  "_format": "hh3-artifact-1",
  "contractName": "RegistroTitulos",
  "sourceName": "contracts/RegistroTitulos.sol",
  "abi": [
    {
      "inputs": [
        {
          "internalType": "address",
          "name": "_ministerioPrincipal",
          "type": "address"
        },
        {
          "internalType": "address",
          "name": "_universidadInicial",
          "type": "address"
        },
        {
          "internalType": "string",
          "name": "_nombreUniversidadInicial",
          "type": "string"
        }
      ],
      "stateMutability": "nonpayable",
      "type": "constructor"
    },
    {
      "anonymous": false,
      "inputs": [
        {
          "indexed": true,
          "internalType": "bytes32",
          "name": "codigoTituloHash",
          "type": "bytes32"
        },
        {
          "indexed": true,
          "internalType": "address",
          "name": "ministerioValidador",
          "type": "address"
        }
      ],
      "name": "TituloAvalado",
      "type": "event"
    },
    {
      "anonymous": false,
      "inputs": [
        {
          "indexed": true,
          "internalType": "bytes32",
          "name": "codigoTituloHash",
          "type": "bytes32"
        },
        {
          "indexed": true,
          "internalType": "bytes32",
          "name": "documentoHash",
          "type": "bytes32"
        },
        {
          "indexed": true,
          "internalType": "bytes32",
          "name": "identificacionEstudianteHash",
          "type": "bytes32"
        },
        {
          "indexed": false,
          "internalType": "string",
          "name": "universidadEmisora",
          "type": "string"
        },
        {
          "indexed": false,
          "internalType": "string",
          "name": "carrera",
          "type": "string"
        },
        {
          "indexed": false,
          "internalType": "string",
          "name": "tituloObtenido",
          "type": "string"
        },
        {
          "indexed": false,
          "internalType": "address",
          "name": "universidad",
          "type": "address"
        }
      ],
      "name": "TituloRegistrado",
      "type": "event"
    },
    {
      "anonymous": false,
      "inputs": [
        {
          "indexed": true,
          "internalType": "address",
          "name": "universidad",
          "type": "address"
        },
        {
          "indexed": false,
          "internalType": "string",
          "name": "nombre",
          "type": "string"
        },
        {
          "indexed": true,
          "internalType": "address",
          "name": "ministerio",
          "type": "address"
        },
        {
          "indexed": false,
          "internalType": "uint256",
          "name": "fechaAutorizacion",
          "type": "uint256"
        }
      ],
      "name": "UniversidadAutorizadaEvento",
      "type": "event"
    },
    {
      "anonymous": false,
      "inputs": [
        {
          "indexed": true,
          "internalType": "address",
          "name": "universidad",
          "type": "address"
        },
        {
          "indexed": true,
          "internalType": "address",
          "name": "ministerio",
          "type": "address"
        },
        {
          "indexed": false,
          "internalType": "uint256",
          "name": "fechaRevocacion",
          "type": "uint256"
        }
      ],
      "name": "UniversidadRevocada",
      "type": "event"
    },
    {
      "inputs": [
        {
          "internalType": "address",
          "name": "universidad",
          "type": "address"
        },
        {
          "internalType": "string",
          "name": "nombre",
          "type": "string"
        }
      ],
      "name": "autorizarUniversidad",
      "outputs": [],
      "stateMutability": "nonpayable",
      "type": "function"
    },
    {
      "inputs": [
        {
          "internalType": "bytes32",
          "name": "codigoTituloHash",
          "type": "bytes32"
        }
      ],
      "name": "avalarTitulo",
      "outputs": [],
      "stateMutability": "nonpayable",
      "type": "function"
    },
    {
      "inputs": [
        {
          "internalType": "address",
          "name": "universidad",
          "type": "address"
        }
      ],
      "name": "esUniversidadAutorizada",
      "outputs": [
        {
          "internalType": "bool",
          "name": "",
          "type": "bool"
        }
      ],
      "stateMutability": "view",
      "type": "function"
    },
    {
      "inputs": [],
      "name": "listarCodigosTitulos",
      "outputs": [
        {
          "internalType": "bytes32[]",
          "name": "",
          "type": "bytes32[]"
        }
      ],
      "stateMutability": "view",
      "type": "function"
    },
    {
      "inputs": [],
      "name": "listarUniversidades",
      "outputs": [
        {
          "internalType": "address[]",
          "name": "",
          "type": "address[]"
        }
      ],
      "stateMutability": "view",
      "type": "function"
    },
    {
      "inputs": [],
      "name": "ministerioPrincipal",
      "outputs": [
        {
          "internalType": "address",
          "name": "",
          "type": "address"
        }
      ],
      "stateMutability": "view",
      "type": "function"
    },
    {
      "inputs": [
        {
          "internalType": "bytes32",
          "name": "codigoTituloHash",
          "type": "bytes32"
        }
      ],
      "name": "obtenerTitulo",
      "outputs": [
        {
          "components": [
            {
              "internalType": "bytes32",
              "name": "codigoTituloHash",
              "type": "bytes32"
            },
            {
              "internalType": "bytes32",
              "name": "documentoHash",
              "type": "bytes32"
            },
            {
              "internalType": "bytes32",
              "name": "identificacionEstudianteHash",
              "type": "bytes32"
            },
            {
              "internalType": "string",
              "name": "universidadEmisora",
              "type": "string"
            },
            {
              "internalType": "string",
              "name": "carrera",
              "type": "string"
            },
            {
              "internalType": "string",
              "name": "tituloObtenido",
              "type": "string"
            },
            {
              "internalType": "address",
              "name": "universidad",
              "type": "address"
            },
            {
              "internalType": "address",
              "name": "ministerioValidador",
              "type": "address"
            },
            {
              "internalType": "enum RegistroTitulos.EstadoTitulo",
              "name": "estado",
              "type": "uint8"
            },
            {
              "internalType": "uint256",
              "name": "fechaRegistro",
              "type": "uint256"
            },
            {
              "internalType": "uint256",
              "name": "fechaAval",
              "type": "uint256"
            },
            {
              "internalType": "bool",
              "name": "existe",
              "type": "bool"
            }
          ],
          "internalType": "struct RegistroTitulos.Titulo",
          "name": "",
          "type": "tuple"
        }
      ],
      "stateMutability": "view",
      "type": "function"
    },
    {
      "inputs": [
        {
          "internalType": "address",
          "name": "universidad",
          "type": "address"
        }
      ],
      "name": "obtenerUniversidad",
      "outputs": [
        {
          "components": [
            {
              "internalType": "string",
              "name": "nombre",
              "type": "string"
            },
            {
              "internalType": "bool",
              "name": "autorizada",
              "type": "bool"
            },
            {
              "internalType": "uint256",
              "name": "fechaAutorizacion",
              "type": "uint256"
            },
            {
              "internalType": "bool",
              "name": "existe",
              "type": "bool"
            }
          ],
          "internalType": "struct RegistroTitulos.UniversidadAutorizada",
          "name": "",
          "type": "tuple"
        }
      ],
      "stateMutability": "view",
      "type": "function"
    },
    {
      "inputs": [
        {
          "internalType": "bytes32",
          "name": "codigoTituloHash",
          "type": "bytes32"
        },
        {
          "internalType": "bytes32",
          "name": "documentoHash",
          "type": "bytes32"
        },
        {
          "internalType": "bytes32",
          "name": "identificacionEstudianteHash",
          "type": "bytes32"
        },
        {
          "internalType": "string",
          "name": "universidadEmisora",
          "type": "string"
        },
        {
          "internalType": "string",
          "name": "carrera",
          "type": "string"
        },
        {
          "internalType": "string",
          "name": "tituloObtenido",
          "type": "string"
        }
      ],
      "name": "registrarTitulo",
      "outputs": [],
      "stateMutability": "nonpayable",
      "type": "function"
    },
    {
      "inputs": [
        {
          "internalType": "address",
          "name": "universidad",
          "type": "address"
        }
      ],
      "name": "revocarUniversidad",
      "outputs": [],
      "stateMutability": "nonpayable",
      "type": "function"
    },
    {
      "inputs": [],
      "name": "totalTitulos",
      "outputs": [
        {
          "internalType": "uint256",
          "name": "",
          "type": "uint256"
        }
      ],
      "stateMutability": "view",
      "type": "function"
    },
    {
      "inputs": [
        {
          "internalType": "bytes32",
          "name": "codigoTituloHash",
          "type": "bytes32"
        },
        {
          "internalType": "bytes32",
          "name": "documentoHash",
          "type": "bytes32"
        },
        {
          "internalType": "bytes32",
          "name": "identificacionEstudianteHash",
          "type": "bytes32"
        }
      ],
      "name": "verificarTitulo",
      "outputs": [
        {
          "internalType": "bool",
          "name": "existe",
          "type": "bool"
        },
        {
          "internalType": "bool",
          "name": "documentoCoincide",
          "type": "bool"
        },
        {
          "internalType": "bool",
          "name": "identificacionCoincide",
          "type": "bool"
        },
        {
          "internalType": "enum RegistroTitulos.EstadoTitulo",
          "name": "estado",
          "type": "uint8"
        }
      ],
      "stateMutability": "view",
      "type": "function"
    }
  ],
  "bytecode": "0x608060405234801561001057600080fd5b506040516132db3803806132db833981810160405281019061003291906105c0565b600073ffffffffffffffffffffffffffffffffffffffff168373ffffffffffffffffffffffffffffffffffffffff16036100a1576040517f08c379a00000000000000000000000000000000000000000000000000000000081526004016100989061068c565b60405180910390fd5b826000806101000a81548173ffffffffffffffffffffffffffffffffffffffff021916908373ffffffffffffffffffffffffffffffffffffffff160217905550600073ffffffffffffffffffffffffffffffffffffffff168273ffffffffffffffffffffffffffffffffffffffff161461012657610125828261012e60201b60201c565b5b505050610aef565b600073ffffffffffffffffffffffffffffffffffffffff168273ffffffffffffffffffffffffffffffffffffffff160361019d576040517f08c379a0000000000000000000000000000000000000000000000000000000008152600401610194906106f8565b60405180910390fd5b60008151116101e1576040517f08c379a00000000000000000000000000000000000000000000000000000000081526004016101d890610764565b60405180910390fd5b600360008373ffffffffffffffffffffffffffffffffffffffff1673ffffffffffffffffffffffffffffffffffffffff16815260200190815260200160002060030160009054906101000a900460ff16610299576004829080600181540180825580915050600190039060005260206000200160009091909190916101000a81548173ffffffffffffffffffffffffffffffffffffffff021916908373ffffffffffffffffffffffffffffffffffffffff1602179055505b604051806080016040528082815260200160011515815260200142815260200160011515815250600360008473ffffffffffffffffffffffffffffffffffffffff1673ffffffffffffffffffffffffffffffffffffffff168152602001908152602001600020600082015181600001908161031491906109a5565b5060208201518160010160006101000a81548160ff0219169083151502179055506040820151816002015560608201518160030160006101000a81548160ff02191690831515021790555090505060008054906101000a900473ffffffffffffffffffffffffffffffffffffffff1673ffffffffffffffffffffffffffffffffffffffff168273ffffffffffffffffffffffffffffffffffffffff167f1a6d1718ebf87f67bac17c85bf98148780c37e1c868ba122cf6959ea40da63e483426040516103e1929190610abf565b60405180910390a35050565b6000604051905090565b600080fd5b600080fd5b600073ffffffffffffffffffffffffffffffffffffffff82169050919050565b600061042c82610401565b9050919050565b61043c81610421565b811461044757600080fd5b50565b60008151905061045981610433565b92915050565b600080fd5b600080fd5b6000601f19601f8301169050919050565b7f4e487b7100000000000000000000000000000000000000000000000000000000600052604160045260246000fd5b6104b282610469565b810181811067ffffffffffffffff821117156104d1576104d061047a565b5b80604052505050565b60006104e46103ed565b90506104f082826104a9565b919050565b600067ffffffffffffffff8211156105105761050f61047a565b5b61051982610469565b9050602081019050919050565b60005b83811015610544578082015181840152602081019050610529565b60008484015250505050565b600061056361055e846104f5565b6104da565b90508281526020810184848401111561057f5761057e610464565b5b61058a848285610526565b509392505050565b600082601f8301126105a7576105a661045f565b5b81516105b7848260208601610550565b91505092915050565b6000806000606084860312156105d9576105d86103f7565b5b60006105e78682870161044a565b93505060206105f88682870161044a565b925050604084015167ffffffffffffffff811115610619576106186103fc565b5b61062586828701610592565b9150509250925092565b600082825260208201905092915050565b7f4d696e6973746572696f20696e76616c69646f00000000000000000000000000600082015250565b600061067660138361062f565b915061068182610640565b602082019050919050565b600060208201905081810360008301526106a581610669565b9050919050565b7f556e69766572736964616420696e76616c696461000000000000000000000000600082015250565b60006106e260148361062f565b91506106ed826106ac565b602082019050919050565b60006020820190508181036000830152610711816106d5565b9050919050565b7f4e6f6d6272652072657175657269646f00000000000000000000000000000000600082015250565b600061074e60108361062f565b915061075982610718565b602082019050919050565b6000602082019050818103600083015261077d81610741565b9050919050565b600081519050919050565b7f4e487b7100000000000000000000000000000000000000000000000000000000600052602260045260246000fd5b600060028204905060018216806107d657607f821691505b6020821081036107e9576107e861078f565b5b50919050565b60008190508160005260206000209050919050565b60006020601f8301049050919050565b600082821b905092915050565b6000600883026108517fffffffffffffffffffffffffffffffffffffffffffffffffffffffffffffffff82610814565b61085b8683610814565b95508019841693508086168417925050509392505050565b6000819050919050565b6000819050919050565b60006108a261089d61089884610873565b61087d565b610873565b9050919050565b6000819050919050565b6108bc83610887565b6108d06108c8826108a9565b848454610821565b825550505050565b600090565b6108e56108d8565b6108f08184846108b3565b505050565b5b81811015610914576109096000826108dd565b6001810190506108f6565b5050565b601f8211156109595761092a816107ef565b61093384610804565b81016020851015610942578190505b61095661094e85610804565b8301826108f5565b50505b505050565b600082821c905092915050565b600061097c6000198460080261095e565b1980831691505092915050565b6000610995838361096b565b9150826002028217905092915050565b6109ae82610784565b67ffffffffffffffff8111156109c7576109c661047a565b5b6109d182546107be565b6109dc828285610918565b600060209050601f831160018114610a0f57600084156109fd578287015190505b610a078582610989565b865550610a6f565b601f198416610a1d866107ef565b60005b82811015610a4557848901518255600182019150602085019450602081019050610a20565b86831015610a625784890151610a5e601f89168261096b565b8355505b6001600288020188555050505b505050505050565b6000610a8282610784565b610a8c818561062f565b9350610a9c818560208601610526565b610aa581610469565b840191505092915050565b610ab981610873565b82525050565b60006040820190508181036000830152610ad98185610a77565b9050610ae86020830184610ab0565b9392505050565b6127dd80610afe6000396000f3fe608060405234801561001057600080fd5b50600436106100b45760003560e01c80638dd65d20116100715780638dd65d201461018d5780639fc13f8f146101a9578063b0f42a5c146101c7578063cd20bcff146101fa578063d4ea3f291461022a578063dc7eaff314610248576100b4565b80631ffdd143146100b95780633dea36e0146100d757806341d72914146101075780637d19aa28146101235780638b5e4a93146101415780638cdf53141461015d575b600080fd5b6100c1610264565b6040516100ce9190611715565b60405180910390f35b6100f160048036038101906100ec91906117a2565b610271565b6040516100fe91906117ea565b60405180910390f35b610121600480360381019061011c91906117a2565b6102ca565b005b61012b6104aa565b60405161013891906118cd565b60405180910390f35b61015b60048036038101906101569190611a35565b610502565b005b610177600480360381019061017291906117a2565b61059e565b6040516101849190611b91565b60405180910390f35b6101a760048036038101906101a29190611bdf565b6106c9565b005b6101b16108f8565b6040516101be9190611c1b565b60405180910390f35b6101e160048036038101906101dc9190611c36565b61091c565b6040516101f19493929190611d00565b60405180910390f35b610214600480360381019061020f9190611bdf565b610c5b565b6040516102219190611e75565b60405180910390f35b610232610f73565b60405161023f9190611f46565b60405180910390f35b610262600480360381019061025d9190611f68565b611001565b005b6000600280549050905090565b6000600360008373ffffffffffffffffffffffffffffffffffffffff1673ffffffffffffffffffffffffffffffffffffffff16815260200190815260200160002060010160009054906101000a900460ff169050919050565b60008054906101000a900473ffffffffffffffffffffffffffffffffffffffff1673ffffffffffffffffffffffffffffffffffffffff163373ffffffffffffffffffffffffffffffffffffffff1614610358576040517f08c379a000000000000000000000000000000000000000000000000000000000815260040161034f906120cc565b60405180910390fd5b600360008273ffffffffffffffffffffffffffffffffffffffff1673ffffffffffffffffffffffffffffffffffffffff16815260200190815260200160002060030160009054906101000a900460ff166103e7576040517f08c379a00000000000000000000000000000000000000000000000000000000081526004016103de90612138565b60405180910390fd5b6000600360008373ffffffffffffffffffffffffffffffffffffffff1673ffffffffffffffffffffffffffffffffffffffff16815260200190815260200160002060010160006101000a81548160ff0219169083151502179055503373ffffffffffffffffffffffffffffffffffffffff168173ffffffffffffffffffffffffffffffffffffffff167f4978a82d4bde404c20e0c99f4fa1172d36b65945ea38df6b2e84e2a6dd03c8294260405161049f9190611715565b60405180910390a350565b606060028054806020026020016040519081016040528092919081815260200182805480156104f857602002820191906000526020600020905b8154815260200190600101908083116104e4575b5050505050905090565b60008054906101000a900473ffffffffffffffffffffffffffffffffffffffff1673ffffffffffffffffffffffffffffffffffffffff163373ffffffffffffffffffffffffffffffffffffffff1614610590576040517f08c379a0000000000000000000000000000000000000000000000000000000008152600401610587906120cc565b60405180910390fd5b61059a8282611367565b5050565b6105a6611626565b600360008373ffffffffffffffffffffffffffffffffffffffff1673ffffffffffffffffffffffffffffffffffffffff16815260200190815260200160002060405180608001604052908160008201805461060090612187565b80601f016020809104026020016040519081016040528092919081815260200182805461062c90612187565b80156106795780601f1061064e57610100808354040283529160200191610679565b820191906000526020600020905b81548152906001019060200180831161065c57829003601f168201915b505050505081526020016001820160009054906101000a900460ff16151515158152602001600282015481526020016003820160009054906101000a900460ff1615151515815250509050919050565b60008054906101000a900473ffffffffffffffffffffffffffffffffffffffff1673ffffffffffffffffffffffffffffffffffffffff163373ffffffffffffffffffffffffffffffffffffffff1614610757576040517f08c379a000000000000000000000000000000000000000000000000000000000815260040161074e906120cc565b60405180910390fd5b600060016000838152602001908152602001600020905080600a0160009054906101000a900460ff166107bf576040517f08c379a00000000000000000000000000000000000000000000000000000000081526004016107b690612204565b60405180910390fd5b600160048111156107d3576107d2611c89565b5b8160070160149054906101000a900460ff1660048111156107f7576107f6611c89565b5b14610837576040517f08c379a000000000000000000000000000000000000000000000000000000000815260040161082e90612296565b60405180910390fd5b60028160070160146101000a81548160ff0219169083600481111561085f5761085e611c89565b5b0217905550338160070160006101000a81548173ffffffffffffffffffffffffffffffffffffffff021916908373ffffffffffffffffffffffffffffffffffffffff1602179055504281600901819055503373ffffffffffffffffffffffffffffffffffffffff16827ff4ce6d437fe2f687e3d8876b5b30173bd7123f19a61210dd61f99e247f965fe360405160405180910390a35050565b60008054906101000a900473ffffffffffffffffffffffffffffffffffffffff1681565b6000806000806000600160008981526020019081526020016000206040518061018001604052908160008201548152602001600182015481526020016002820154815260200160038201805461097190612187565b80601f016020809104026020016040519081016040528092919081815260200182805461099d90612187565b80156109ea5780601f106109bf576101008083540402835291602001916109ea565b820191906000526020600020905b8154815290600101906020018083116109cd57829003601f168201915b50505050508152602001600482018054610a0390612187565b80601f0160208091040260200160405190810160405280929190818152602001828054610a2f90612187565b8015610a7c5780601f10610a5157610100808354040283529160200191610a7c565b820191906000526020600020905b815481529060010190602001808311610a5f57829003601f168201915b50505050508152602001600582018054610a9590612187565b80601f0160208091040260200160405190810160405280929190818152602001828054610ac190612187565b8015610b0e5780601f10610ae357610100808354040283529160200191610b0e565b820191906000526020600020905b815481529060010190602001808311610af157829003601f168201915b505050505081526020016006820160009054906101000a900473ffffffffffffffffffffffffffffffffffffffff1673ffffffffffffffffffffffffffffffffffffffff1673ffffffffffffffffffffffffffffffffffffffff1681526020016007820160009054906101000a900473ffffffffffffffffffffffffffffffffffffffff1673ffffffffffffffffffffffffffffffffffffffff1673ffffffffffffffffffffffffffffffffffffffff1681526020016007820160149054906101000a900460ff166004811115610be857610be7611c89565b5b6004811115610bfa57610bf9611c89565b5b81526020016008820154815260200160098201548152602001600a820160009054906101000a900460ff1615151515815250509050806101600151945086816020015114935085816040015114925080610100015191505093509350935093565b610c63611652565b6001600083815260200190815260200160002060405180610180016040529081600082015481526020016001820154815260200160028201548152602001600382018054610cb090612187565b80601f0160208091040260200160405190810160405280929190818152602001828054610cdc90612187565b8015610d295780601f10610cfe57610100808354040283529160200191610d29565b820191906000526020600020905b815481529060010190602001808311610d0c57829003601f168201915b50505050508152602001600482018054610d4290612187565b80601f0160208091040260200160405190810160405280929190818152602001828054610d6e90612187565b8015610dbb5780601f10610d9057610100808354040283529160200191610dbb565b820191906000526020600020905b815481529060010190602001808311610d9e57829003601f168201915b50505050508152602001600582018054610dd490612187565b80601f0160208091040260200160405190810160405280929190818152602001828054610e0090612187565b8015610e4d5780601f10610e2257610100808354040283529160200191610e4d565b820191906000526020600020905b815481529060010190602001808311610e3057829003601f168201915b505050505081526020016006820160009054906101000a900473ffffffffffffffffffffffffffffffffffffffff1673ffffffffffffffffffffffffffffffffffffffff1673ffffffffffffffffffffffffffffffffffffffff1681526020016007820160009054906101000a900473ffffffffffffffffffffffffffffffffffffffff1673ffffffffffffffffffffffffffffffffffffffff1673ffffffffffffffffffffffffffffffffffffffff1681526020016007820160149054906101000a900460ff166004811115610f2757610f26611c89565b5b6004811115610f3957610f38611c89565b5b81526020016008820154815260200160098201548152602001600a820160009054906101000a900460ff1615151515815250509050919050565b60606004805480602002602001604051908101604052809291908181526020018280548015610ff757602002820191906000526020600020905b8160009054906101000a900473ffffffffffffffffffffffffffffffffffffffff1673ffffffffffffffffffffffffffffffffffffffff1681526020019060010190808311610fad575b5050505050905090565b600360003373ffffffffffffffffffffffffffffffffffffffff1673ffffffffffffffffffffffffffffffffffffffff16815260200190815260200160002060010160009054906101000a900460ff16611090576040517f08c379a000000000000000000000000000000000000000000000000000000000815260040161108790612302565b60405180910390fd5b60016000878152602001908152602001600020600a0160009054906101000a900460ff16156110f4576040517f08c379a00000000000000000000000000000000000000000000000000000000081526004016110eb9061236e565b60405180910390fd5b6040518061018001604052808781526020018681526020018581526020018481526020018381526020018281526020013373ffffffffffffffffffffffffffffffffffffffff168152602001600073ffffffffffffffffffffffffffffffffffffffff1681526020016001600481111561117157611170611c89565b5b815260200142815260200160008152602001600115158152506001600088815260200190815260200160002060008201518160000155602082015181600101556040820151816002015560608201518160030190816111d0919061253a565b5060808201518160040190816111e6919061253a565b5060a08201518160050190816111fc919061253a565b5060c08201518160060160006101000a81548173ffffffffffffffffffffffffffffffffffffffff021916908373ffffffffffffffffffffffffffffffffffffffff16021790555060e08201518160070160006101000a81548173ffffffffffffffffffffffffffffffffffffffff021916908373ffffffffffffffffffffffffffffffffffffffff1602179055506101008201518160070160146101000a81548160ff021916908360048111156112b7576112b6611c89565b5b02179055506101208201518160080155610140820151816009015561016082015181600a0160006101000a81548160ff02191690831515021790555090505060028690806001815401808255809150506001900390600052602060002001600090919091909150558385877f3e3f4a190b362a0db367623ea92258dc8f1a1c100696d9fdc3a5d205652097eb868686336040516113579493929190612645565b60405180910390a4505050505050565b600073ffffffffffffffffffffffffffffffffffffffff168273ffffffffffffffffffffffffffffffffffffffff16036113d6576040517f08c379a00000000000000000000000000000000000000000000000000000000081526004016113cd906126eb565b60405180910390fd5b600081511161141a576040517f08c379a000000000000000000000000000000000000000000000000000000000815260040161141190612757565b60405180910390fd5b600360008373ffffffffffffffffffffffffffffffffffffffff1673ffffffffffffffffffffffffffffffffffffffff16815260200190815260200160002060030160009054906101000a900460ff166114d2576004829080600181540180825580915050600190039060005260206000200160009091909190916101000a81548173ffffffffffffffffffffffffffffffffffffffff021916908373ffffffffffffffffffffffffffffffffffffffff1602179055505b604051806080016040528082815260200160011515815260200142815260200160011515815250600360008473ffffffffffffffffffffffffffffffffffffffff1673ffffffffffffffffffffffffffffffffffffffff168152602001908152602001600020600082015181600001908161154d919061253a565b5060208201518160010160006101000a81548160ff0219169083151502179055506040820151816002015560608201518160030160006101000a81548160ff02191690831515021790555090505060008054906101000a900473ffffffffffffffffffffffffffffffffffffffff1673ffffffffffffffffffffffffffffffffffffffff168273ffffffffffffffffffffffffffffffffffffffff167f1a6d1718ebf87f67bac17c85bf98148780c37e1c868ba122cf6959ea40da63e4834260405161161a929190612777565b60405180910390a35050565b604051806080016040528060608152602001600015158152602001600081526020016000151581525090565b604051806101800160405280600080191681526020016000801916815260200160008019168152602001606081526020016060815260200160608152602001600073ffffffffffffffffffffffffffffffffffffffff168152602001600073ffffffffffffffffffffffffffffffffffffffff168152602001600060048111156116df576116de611c89565b5b815260200160008152602001600081526020016000151581525090565b6000819050919050565b61170f816116fc565b82525050565b600060208201905061172a6000830184611706565b92915050565b6000604051905090565b600080fd5b600080fd5b600073ffffffffffffffffffffffffffffffffffffffff82169050919050565b600061176f82611744565b9050919050565b61177f81611764565b811461178a57600080fd5b50565b60008135905061179c81611776565b92915050565b6000602082840312156117b8576117b761173a565b5b60006117c68482850161178d565b91505092915050565b60008115159050919050565b6117e4816117cf565b82525050565b60006020820190506117ff60008301846117db565b92915050565b600081519050919050565b600082825260208201905092915050565b6000819050602082019050919050565b6000819050919050565b61184481611831565b82525050565b6000611856838361183b565b60208301905092915050565b6000602082019050919050565b600061187a82611805565b6118848185611810565b935061188f83611821565b8060005b838110156118c05781516118a7888261184a565b97506118b283611862565b925050600181019050611893565b5085935050505092915050565b600060208201905081810360008301526118e7818461186f565b905092915050565b600080fd5b600080fd5b6000601f19601f8301169050919050565b7f4e487b7100000000000000000000000000000000000000000000000000000000600052604160045260246000fd5b611942826118f9565b810181811067ffffffffffffffff821117156119615761196061190a565b5b80604052505050565b6000611974611730565b90506119808282611939565b919050565b600067ffffffffffffffff8211156119a05761199f61190a565b5b6119a9826118f9565b9050602081019050919050565b82818337600083830152505050565b60006119d86119d384611985565b61196a565b9050828152602081018484840111156119f4576119f36118f4565b5b6119ff8482856119b6565b509392505050565b600082601f830112611a1c57611a1b6118ef565b5b8135611a2c8482602086016119c5565b91505092915050565b60008060408385031215611a4c57611a4b61173a565b5b6000611a5a8582860161178d565b925050602083013567ffffffffffffffff811115611a7b57611a7a61173f565b5b611a8785828601611a07565b9150509250929050565b600081519050919050565b600082825260208201905092915050565b60005b83811015611acb578082015181840152602081019050611ab0565b60008484015250505050565b6000611ae282611a91565b611aec8185611a9c565b9350611afc818560208601611aad565b611b05816118f9565b840191505092915050565b611b19816117cf565b82525050565b611b28816116fc565b82525050565b60006080830160008301518482036000860152611b4b8282611ad7565b9150506020830151611b606020860182611b10565b506040830151611b736040860182611b1f565b506060830151611b866060860182611b10565b508091505092915050565b60006020820190508181036000830152611bab8184611b2e565b905092915050565b611bbc81611831565b8114611bc757600080fd5b50565b600081359050611bd981611bb3565b92915050565b600060208284031215611bf557611bf461173a565b5b6000611c0384828501611bca565b91505092915050565b611c1581611764565b82525050565b6000602082019050611c306000830184611c0c565b92915050565b600080600060608486031215611c4f57611c4e61173a565b5b6000611c5d86828701611bca565b9350506020611c6e86828701611bca565b9250506040611c7f86828701611bca565b9150509250925092565b7f4e487b7100000000000000000000000000000000000000000000000000000000600052602160045260246000fd5b60058110611cc957611cc8611c89565b5b50565b6000819050611cda82611cb8565b919050565b6000611cea82611ccc565b9050919050565b611cfa81611cdf565b82525050565b6000608082019050611d1560008301876117db565b611d2260208301866117db565b611d2f60408301856117db565b611d3c6060830184611cf1565b95945050505050565b611d4e81611764565b82525050565b611d5d81611cdf565b82525050565b600061018083016000830151611d7c600086018261183b565b506020830151611d8f602086018261183b565b506040830151611da2604086018261183b565b5060608301518482036060860152611dba8282611ad7565b91505060808301518482036080860152611dd48282611ad7565b91505060a083015184820360a0860152611dee8282611ad7565b91505060c0830151611e0360c0860182611d45565b5060e0830151611e1660e0860182611d45565b50610100830151611e2b610100860182611d54565b50610120830151611e40610120860182611b1f565b50610140830151611e55610140860182611b1f565b50610160830151611e6a610160860182611b10565b508091505092915050565b60006020820190508181036000830152611e8f8184611d63565b905092915050565b600081519050919050565b600082825260208201905092915050565b6000819050602082019050919050565b6000611ecf8383611d45565b60208301905092915050565b6000602082019050919050565b6000611ef382611e97565b611efd8185611ea2565b9350611f0883611eb3565b8060005b83811015611f39578151611f208882611ec3565b9750611f2b83611edb565b925050600181019050611f0c565b5085935050505092915050565b60006020820190508181036000830152611f608184611ee8565b905092915050565b60008060008060008060c08789031215611f8557611f8461173a565b5b6000611f9389828a01611bca565b9650506020611fa489828a01611bca565b9550506040611fb589828a01611bca565b945050606087013567ffffffffffffffff811115611fd657611fd561173f565b5b611fe289828a01611a07565b935050608087013567ffffffffffffffff8111156120035761200261173f565b5b61200f89828a01611a07565b92505060a087013567ffffffffffffffff8111156120305761202f61173f565b5b61203c89828a01611a07565b9150509295509295509295565b600082825260208201905092915050565b7f536f6c6f20656c204d696e6973746572696f20707565646520656a656375746160008201527f72206573746120616363696f6e00000000000000000000000000000000000000602082015250565b60006120b6602d83612049565b91506120c18261205a565b604082019050919050565b600060208201905081810360008301526120e5816120a9565b9050919050565b7f556e697665727369646164206e6f207265676973747261646100000000000000600082015250565b6000612122601983612049565b915061212d826120ec565b602082019050919050565b6000602082019050818103600083015261215181612115565b9050919050565b7f4e487b7100000000000000000000000000000000000000000000000000000000600052602260045260246000fd5b6000600282049050600182168061219f57607f821691505b6020821081036121b2576121b1612158565b5b50919050565b7f456c20746974756c6f206e6f2065786973746500000000000000000000000000600082015250565b60006121ee601383612049565b91506121f9826121b8565b602082019050919050565b6000602082019050818103600083015261221d816121e1565b9050919050565b7f456c20746974756c6f206e6f20657374612070656e6469656e7465206465206160008201527f76616c0000000000000000000000000000000000000000000000000000000000602082015250565b6000612280602383612049565b915061228b82612224565b604082019050919050565b600060208201905081810360008301526122af81612273565b9050919050565b7f556e697665727369646164206e6f206175746f72697a61646100000000000000600082015250565b60006122ec601983612049565b91506122f7826122b6565b602082019050919050565b6000602082019050818103600083015261231b816122df565b9050919050565b7f456c20746974756c6f2079612065786973746500000000000000000000000000600082015250565b6000612358601383612049565b915061236382612322565b602082019050919050565b600060208201905081810360008301526123878161234b565b9050919050565b60008190508160005260206000209050919050565b60006020601f8301049050919050565b600082821b905092915050565b6000600883026123f07fffffffffffffffffffffffffffffffffffffffffffffffffffffffffffffffff826123b3565b6123fa86836123b3565b95508019841693508086168417925050509392505050565b6000819050919050565b600061243761243261242d846116fc565b612412565b6116fc565b9050919050565b6000819050919050565b6124518361241c565b61246561245d8261243e565b8484546123c0565b825550505050565b600090565b61247a61246d565b612485818484612448565b505050565b5b818110156124a95761249e600082612472565b60018101905061248b565b5050565b601f8211156124ee576124bf8161238e565b6124c8846123a3565b810160208510156124d7578190505b6124eb6124e3856123a3565b83018261248a565b50505b505050565b600082821c905092915050565b6000612511600019846008026124f3565b1980831691505092915050565b600061252a8383612500565b9150826002028217905092915050565b61254382611a91565b67ffffffffffffffff81111561255c5761255b61190a565b5b6125668254612187565b6125718282856124ad565b600060209050601f8311600181146125a45760008415612592578287015190505b61259c858261251e565b865550612604565b601f1984166125b28661238e565b60005b828110156125da578489015182556001820191506020850194506020810190506125b5565b868310156125f757848901516125f3601f891682612500565b8355505b6001600288020188555050505b505050505050565b600061261782611a91565b6126218185612049565b9350612631818560208601611aad565b61263a816118f9565b840191505092915050565b6000608082019050818103600083015261265f818761260c565b90508181036020830152612673818661260c565b90508181036040830152612687818561260c565b90506126966060830184611c0c565b95945050505050565b7f556e69766572736964616420696e76616c696461000000000000000000000000600082015250565b60006126d5601483612049565b91506126e08261269f565b602082019050919050565b60006020820190508181036000830152612704816126c8565b9050919050565b7f4e6f6d6272652072657175657269646f00000000000000000000000000000000600082015250565b6000612741601083612049565b915061274c8261270b565b602082019050919050565b6000602082019050818103600083015261277081612734565b9050919050565b60006040820190508181036000830152612791818561260c565b90506127a06020830184611706565b939250505056fea26469706673582212201a0c5610b6e4617a56de5bfe76d6170b8aa21fbc6d432e5854635b48a8b24f6564736f6c634300081c0033",
  "linkReferences": {},
  "deployedLinkReferences": {},
  "immutableReferences": {},
  "inputSourceName": "project/contracts/RegistroTitulos.sol",
  "buildInfoId": "solc-0_8_28-36c74b735eb9f0da5413ef310a517502a8e9183c"
}